:100000000C947B000C94E7160C94C0160C94A3007F
:100010000C94A3000C94A3000C94A3000C94A300D4
:100020000C94A3000C94A3000C94A3000C94A300C4
:100030000C94A3000C94A3000C94A3000C94A300B4
:100040000C940F230C94A3000C9455170C942F17A9
:100050000C94A3000C94A3000C94A3000C94A30094
:100060000C94FE170C94A30000000000230026004F
:100070002900000020410000C84200401C4620BC6E
:10008000BE4CCA1B0E5AAEC59D74CDCCCC3D0AD712
:10009000233C17B7D13877CC2B329595E6241FB186
:1000A0004F0A00000000240027002A000000000082
:1000B000250028002B0004040404040404040202A4
:1000C00002020202030303030303010204081020D7
:1000D00040800102040810200102040810200000E2
:1000E00000080002010000030407000000000000F7
:1000F00000001B2D152D11241FBECFEFD8E0DEBF51
:10010000CDBF13E0A0E0B1E0E0ECFAE602C005905C
:100110000D92AC31B107D9F725E0ACE1B3E001C0F5
:100120001D92AA3FB207E1F710E0CAE7D0E004C091
:100130002197FE010E947A30C937D107C9F70E9482
:1001400059230C9453350C9400000895CF93DF93FA
:10015000DC01EB01EC81FD818A819B810896E81727
:10016000F90718F481E0888722C03897FD83EC8373
:100170003097E9F01296CD91DC911397209751F0CA
:10018000CF018C1B9D0B23E0959587952A95E1F770
:100190008D8303C01196FC93EE931396FC93EE931C
:1001A00012971582148217821682CF0102C080E056
:1001B00090E0DF91CF910895FC01768765870895DF
:1001C000DC01ED91FC91068CF78DE02D099591E015
:1001D00089270895862F089581E08627089521E0D4
:1001E000FC018485843008F020E0822F089580E0AF
:1001F00090E00895FC01248125FF05C08081918154
:100200000E94431D089580E090E00895CF93DF930E
:10021000E1EEF0E08491EDECF0E0D491E9EBF0E078
:10022000C491CC2379F081110E941022EC2FF0E0D0
:10023000EE0FFF1FE859FF4FA591B491EC91ED230C
:1002400081E009F480E080930A0190919903811183
:100250000FC0911112C060E088E00E943922109214
:10026000730481E080939903DF91CF910C94AD1FCB
:10027000911103C081E080939903DF91CF9108959C
:10028000FC01808581110AC0A581B681CD0101964E
:10029000968385838C91878381E080878781089509
:1002A000CF93DF93EC01CE010E9440018B302CF400
:1002B0008930B4F4882331F015C08D3089F0803254
:1002C00089F40EC08C81811103C081E090E002C0EE
:1002D00082E090E0C55BDF4F9983888380E004C0B3
:1002E0001886E1CF81E08C83DF91CF9108953F9212
:1002F0004F925F926F927F928F929F92AF92BF9236
:10030000CF92DF92EF92FF920F931F93CF93DF93E1
:10031000EC018B01F22E0E945001982E882319F1D6
:10032000CE010E944001873209F47EC024F482325B
:1003300009F47AC090C08B3521F08B3709F44CC09A
:100340008AC060E4C80104960E946C1DF801118205
:10035000108213821282F11008C0C55BDF4F86E065
:1003600090E099838883912C7DC21886CE010E94EB
:1003700050018823C1F36DE5CE010E94821E8111D8
:1003800071C2FA9469857A85C8010E94A600009717
:1003900029F4C55BDF4F84E090E0E3CF2F2D40E0F0
:1003A000BC01CE010E9477018823E9F2CE010E94B0
:1003B00050018823C1F26DE5CE010E94821E811199
:1003C00051C26CE2CE010E94821E8111DBCFC55B5F
:1003D000DF4F83E090E0C5CF60E2C80104960E9441
:1003E0006C1DF8011182108213821282FF2009F421
:1003F000B4CF1886CE010E945001882309F4B3CFF0
:100400006DE7CE010E94821E81112CC2FA94888170
:1004100099819B838A83CE010E9440018732D1F16A
:10042000823209F086C036C0888199819B838A8395
:10043000CE010E948C1D982E882309F494CF0A8047
:10044000DB81C02D64E0C80104960E946C1DF80198
:10045000D183C08307C2CE010E944001E82E6E0105
:10046000FBE0CF0ED11CF12CBC2CAD2C8E2D0E94AC
:10047000721D882309F47EC02FE3F21609F47AC0B6
:100480001886F394F601E1926F01CE010E944001BB
:10049000E82EECCFCE010E948C1D882309F463CF97
:1004A000CE010E945001882309F45DCF6AE3CE019A
:1004B0000E94821E882309F48ACFCA80DB80B6019D
:1004C000F801808191810E94431D009711F0BC01C9
:1004D0000FC069857A85C8010E94A600FC01892B9E
:1004E00009F457CF84818F778483D782C682BF0176
:1004F0002F2D40E0CE010E947701882309F433CFED
:10050000CE010E945001882309F42DCF6DE7CE0162
:100510000E94821E8111A6C16CE2CE010E94821E41
:10052000882309F454CFCE010E94500181116FCF6E
:100530001ACFCE010E944001E82E0E94721D88232E
:1005400009F445CF1886E881F981CF010196998396
:100550008883E082CE010E944001E82E0E94721D35
:100560008111F0CFE881F981CF01019699838883C9
:10057000108296CFFE01EF0DF11D13868B85843717
:10058000B9F466E0C80104960E946C1D81E090E019
:10059000A0E0B0E0F80180839183A283B383F4E00C
:1005A000FF1609F45FC1C55BDF4F82E090E0D9CE52
:1005B000863661F466E0C80104960E946C1DF8015D
:1005C0001082118212821382F5E0EACF8E3621F476
:1005D00024E0F212E8CF46C18B3251F08D3219F08F
:1005E000EB2DFA2D07C0FE013C968824839403C0AE
:1005F000FE013C96812C808190ED980F9A3018F086
:100600008E3209F0E4CE5F01C12CD12C7601F501C8
:10061000819130ED732E780E99E0971528F12AE933
:10062000C21629E9D206E20629E1F206F8F4AAE0A8
:10063000B0E0A70196010E94F82F6B017C01872D85
:1006400090E0A0E0B0E0AC01BD0140955095609510
:1006500070954C155D056E057F0540F0C80ED91EDE
:10066000EA1EFB1E5F01D3CF882339F0312C2AE02C
:10067000422E512C612C712C0FC0C8010496882089
:1006800011F06AE001C068E00E946C1DF801C082B0
:10069000D182E282F382E6C0C114D104F0E8EF0611
:1006A000F10450F0C701B601A30192010E9442304B
:1006B00069017A013394F0CFD501F50181915F0191
:1006C00090ED980F9A3010F43394F6CF8E3201F5F6
:1006D000FD013196DF0131968C9190EDB92EB80E67
:1006E00029E02B15A8F08CECC816D8068CE0E8069B
:1006F000F10480F7AAE0B0E0A70196010E94F82F6C
:100700006B017C01CB0CD11CE11CF11C3A94E2CFB3
:100710008C918F7D853409F055C011968C9111977D
:100720008D3219F4129661E006C08B3211F01196E9
:1007300001C0129660E0FD0180E090E07AE0B72E03
:10074000232D032C000C330BDF01719140ED470F7B
:100750004A3090F5B89EA001B99E500D1124872F04
:10076000770F990BC097840F951FA901480F591F48
:10077000473251054CF3C8010496662361F0882086
:1007800031F0C12CD12CE12C60E8F62E13C0C12C25
:10079000D12C76010FC0811007C0C12CD12C50E89C
:1007A000E52E5FE7F52E06C0C12CD12C40E8E42EE3
:1007B000FF24FA946CE04FC0662331F09195819547
:1007C000910902C080E090E02C91211100CEEC0153
:1007D000C30DD11D37FCDA95C701B6010E94C82EA2
:1007E0001C161D06ACF4F12CC0FF0CC024E0F29ED8
:1007F000F0011124EE58FF4F259135914591549108
:100800000E94052FD595C795F394209769F718C0D6
:10081000D195C195D109F12C209791F0C0FF0CC062
:1008200024E0F29EF0011124E657FF4F2591359107
:10083000459154910E94052FD595C795F394ECCF1F
:100840006B017C01882021F0F7FAF094F7F8F0941E
:100850006CE0C80104960E946C1DF801C082D18230
:10086000E282F382892DDF91CF911F910F91FF904A
:10087000EF90DF90CF90BF90AF909F908F907F9040
:100880006F905F904F903F900895EF92FF920F937B
:100890001F93CF93DF93CDB7DEB7CE56D1090FB6F6
:1008A000F894DEBF0FBECDBF0E941C1F882309F441
:1008B00087C080912E04811103C0EFE8F2E002C0EE
:1008C000ECE8F2E080917304811103C06FE872E0FC
:1008D00002C06CE872E080919503811103C04FE87B
:1008E00052E002C04CE852E0A0919703B091980307
:1008F00080919603811103C028E932E002C023E908
:1009000032E080910A01811103C083E992E002C0C4
:1009100088E992E0FF93EF937F936F935F934F93F8
:10092000BF93AF933F932F939F938F938EE992E062
:100930009F938F93CE0101967C019F938F930E948A
:10094000AB3261E070E080E090E00E94A1318C0168
:100950000FB6F894DEBF0FBECDBF009731F0FC019B
:1009600010826AE173E00E94A432B70184E794E048
:100970000E940E1762EF72E084E794E00E940E1767
:100980006091310570913205C7010E94BD2EAC0106
:10099000B70181E891E00E94531F0115110581F014
:1009A000C801C259DF4F0FB6F894DEBF0FBECDBFEE
:1009B000DF91CF911F910F91FF90EF900C94183120
:1009C000C259DF4F0FB6F894DEBF0FBECDBFDF9127
:1009D000CF911F910F91FF90EF900895EF92FF92AA
:1009E0000F931F93CF93DF93CDB7DEB7CD54D109CB
:1009F0000FB6F894DEBF0FBECDBF8B016115710538
:100A000029F48AE1E82E83E0F82E01C07B01809171
:100A1000520590915305909355058093540580910C
:100A2000580590915905909357058093560510925B
:100A30005A0560E08FE595E00E946C1D30E020E0F3
:100A400009831A833B832C831D82FF82EE821986E1
:100A500082E595E09B878A872E961FAE1EAE2E9765
:100A60002AE040E06BE575E0CE0101960E94770137
:100A70002E968EAD9FAD2E97009769F488858823BA
:100A800009F44CC080915F05982F9F779C3009F046
:100A900041C083E090E0892B69F565EF72E08BE55A
:100AA00095E00E94FA00892BE9F065EF72E08BE592
:100AB00095E00E94FA00FC01892B99F194819F77BF
:100AC0009450923070F50190F081E02D81818E3448
:100AD00009F446C01092730460E088E00E94392255
:100AE0000E94AD1F6BEF72E08BE595E00E94FA006B
:100AF000892BD1F40E944504C35BDF4F0FB6F894F5
:100B0000DEBF0FBECDBFDF91CF911F910F91FF9040
:100B1000EF9008958D77883009F4BBCF80E090E0A6
:100B2000BACFE0E0F0E0D2CF6BEF72E08BE595E07A
:100B30000E94FA00FC01892B49F094819F77945020
:100B4000923020F40190F081E02D02C0E0E0F0E06E
:100B500081818E3451F481E080932E0461E008C0DD
:100B600081E08093730461E0B8CF10922E0460E0BE
:100B700080E10E943922BECF60E084E00E943922E9
:100B800060E273E080E090E00E94C92261E084E0CE
:100B90000E94392260E08EE00C9439222091EC050D
:100BA00090E0233311F40C9601C04896982F990FCA
:100BB000990F990F80E00895CF93DF931F92CDB7DF
:100BC000DEB76983DC01ED91FC910280F381E02DB9
:100BD00041E050E0BE016F5F7F4F09950F90DF91BC
:100BE000CF910895FC01818D928D0895FC0194852B
:100BF000FB018485981303C081E0943008F080E005
:100C00000895FF920F931F93CF93DF9300D0CDB73A
:100C1000DEB7F82E22E030E0AE014F5F5F4F66E2B4
:100C200070E00E94081C09811A81102701271027F3
:100C300022E030E0AE014F5F5F4F66E270E08F2D43
:100C40000E94081C89819A8198278927982708176C
:100C5000190711F08C01ECCFC8010F900F90DF91B4
:100C6000CF911F910F91FF9008950F931F93CF93F2
:100C7000DF9300D0CDB7DEB7FC0124852430E0F44B
:100C80008C01CE0101960E94BF1F89819A810E942A
:100C90001B1C22E030E0AE014F5F5F4F60E170E06F
:100CA000F80184850E94081C09811A8110270127F8
:100CB00010270E941A1C02C000E010E0C8010F902B
:100CC0000F90DF91CF911F910F9108950F931F9374
:100CD000CF93DF9300D0CDB7DEB7FC01248524305D
:100CE000E0F48C01CE0101960E94BF1F89819A8198
:100CF0000E941B1C22E030E0AE014F5F5F4F64E0BA
:100D000070E0F80184850E94081C09811A8110276F
:100D1000012710270E941A1C02C000E010E0C80141
:100D20000F900F90DF91CF911F910F910895AF9287
:100D3000BF92CF92DF92EF92FF920F931F93CF93C8
:100D4000DF93CDB7DEB7AF970FB6F894DEBF0FBE17
:100D5000CDBF8C015B016A01CE0101960E94960F06
:100D60008FE6E82E82E0F82EFBA6EAA61CA61DA6BA
:100D70001EA61FA68091250590912605A091270506
:100D8000B09128058EA39FA3A8A7B9A78B839C83A6
:100D9000AD83BE8318861F82AE01465D5F4FB501ED
:100DA000CE0101960E94B60F81309105B1F4D801B1
:100DB000ED91FC910488F589E02DFDA2ECA28CA5B3
:100DC0009DA5AEA5BFA58EA39FA3A8A7B9A7A60161
:100DD000BE016C5D7F4FC8010995AF960FB6F894C0
:100DE000DEBF0FBECDBFDF91CF911F910F91FF905E
:100DF000EF90DF90CF90BF90AF900895E0912103E6
:100E0000F0912203908180912003892B80830895A3
:100E1000E0912103F091220390818091200380953D
:100E2000892380830895CF93DF931F92CDB7DEB7D8
:100E300041E050E0BE016F5F7F4F80E090E00E9494
:100E40003C1989810F90DF91CF910895CF93DF9363
:100E50001F92CDB7DEB7898341E050E0BE016F5FDE
:100E60007F4F80E090E00E94C9190F90DF91CF91F1
:100E700008958EBD00000DB407FEFDCF8EB5089518
:100E8000EF92FF921F93CF93DF9300D0CDB7DEB7E1
:100E9000182F22E030E0AE014F5F5F4F60E270E05C
:100EA0000E94081CE980FA80FE24EF24FE2422E040
:100EB00030E0AE014F5F5F4F60E270E0812F0E9433
:100EC000081C89819A81982789279827E816F906AE
:100ED00011F07C01ECCF87E0189FF0011124E8535A
:100EE000FA4FF582E482C7010F900F90DF91CF9106
:100EF0001F91FF90EF9008951F93CF93DF9300D041
:100F0000CDB7DEB7182FCE0101960E94BF1F898191
:100F10009A810E941B1C812F0E94CE0527E0129F00
:100F2000F0011124E853FA4F22813381377041E0F8
:100F300050E0BE016F5F7F4F820F931F0E943C19EC
:100F40000E941A1C89810F900F90DF91CF911F9101
:100F50000895FC01808D843040F4218D328D232B47
:100F600021F00E947C0790E008958FEF9FEF089595
:100F7000EF92FF920F931F93CF93DF9300D0CDB7E3
:100F8000DEB7482F87E0489F90011124F901E8530C
:100F9000FA4F7F01808191810097B9F4142FCE011F
:100FA00001960E94BF1F89819A810E941B1C812F7C
:100FB0000E9401068C010E941A1CF701868198018B
:100FC000281B3109C901318320830F900F90DF91D5
:100FD000CF911F910F91FF90EF9008951F93CF93A2
:100FE000DF9300D0CDB7DEB7182FCE0101960E9457
:100FF000BF1F89819A810E941B1C68E070E0812FCD
:101000000E942C190E941A1C0F900F90DF91CF9113
:101010001F9108951F93CF93DF9300D0CDB7DEB714
:10102000182FCE0101960E94BF1F89819A810E94CC
:101030001B1C60E170E0812F0E942C190E941A1C79
:101040000F900F90DF91CF911F910895CF92DF9273
:10105000EF92FF920F931F93CF93DF9300D000D0B6
:1010600000D0CDB7DEB78C016B017A01FC01808D19
:10107000843010F40E940A088FE692E09A838983F4
:10108000F60182819381A481B5818B839C83AD839A
:10109000BE83B701CE0101960E945720F801808FD0
:1010A000843030F4F586E486128E118E81E001C022
:1010B00080E026960FB6F894DEBF0FBECDBFDF915D
:1010C000CF911F910F91FF90EF90DF90CF900895F7
:1010D000CF93DF93FC01808D843028F4EF010E94D0
:1010E0000A0884E0888FDF91CF910895DA0190910A
:1010F0002303E92FF0E0FE2FEE27E60FF71F90E025
:10110000982F8827A901BD018E0F9F1F0C94C91924
:101110007F928F929F92AF92BF92CF92DF92EF9287
:10112000FF920F931F93CF93DF9300D0CDB7DEB71D
:10113000782E8B014A01590122E030E0AE014F5F69
:101140005F4F64E270E00E94081CE980FA80FE2490
:10115000EF24FE24E00EF11E970137704091EC055C
:10116000072D10E0C801433311F4089601C04096E2
:10117000982F8827990F990F990F820F931F473344
:1011800019F4A501B40120C0A9014A0D5B1D41302D
:101190005840B8F360E078E06B01C21AD30AA601A8
:1011A000B4010E94C919A5014C195D09B4016C0D67
:1011B0007D1D8091EC05833339F5085F1F4F902F1B
:1011C000990F990F990F80E00E94C919EA0CFB1C36
:1011D000F982EA8222E030E0AE014F5F5F4F64E2C5
:1011E00070E0872D0E9476080F900F90DF91CF91CD
:1011F0001F910F91FF90EF90DF90CF90BF90AF9035
:101200009F908F907F900895005F1F4FD8CF7F925F
:101210008F929F92AF92BF92CF92DF92EF92FF9206
:101220000F931F93CF93DF9300D0CDB7DEB77C0130
:101230004B01742EC52EFC01A688B788D08CCE0138
:1012400001960E94BF1F89819A810E941B1C8D2DCF
:101250000E944007072D1C2D8017910708F48C0170
:101260009801A401B5018D2D0E9488080E941A1CC6
:10127000F70186899789800F911F978B868BC8010C
:101280000F900F90DF91CF911F910F91FF90EF90F2
:10129000DF90CF90BF90AF909F908F907F900895F8
:1012A000CF93DF9300D0CDB7DEB779836A8322E096
:1012B00030E0AE014F5F5F4F60E170E00E94760862
:1012C0000F900F90DF91CF910895CF93DF9300D0CF
:1012D000CDB7DEB779836A8322E030E0AE014F5F9D
:1012E0005F4F64E070E00E9476080F900F90DF91EE
:1012F000CF910895DF92EF92FF920F931F93CF93B8
:10130000DF9300D0CDB7DEB7FB01DC0157961C920E
:101310001E9256972281211109C02381211106C0F6
:101320002481211103C02581222309F14115510592
:10133000F1F07A018F01FC01D08CCE0101960E9460
:10134000BF1F89819A810E941B1CA8014E5F5F4FBD
:1013500024E030E06CE070E08D2D0E947608B7014B
:101360008D2D0E9450090E941A1C81E001C080E06E
:1013700090E00F900F90DF91CF911F910F91FF9010
:10138000EF90DF900895CF93DF931F92CDB7DEB734
:1013900090912303292F30E0322F2227260F371F69
:1013A00090E0982F8827498341E050E0BE016F5FAD
:1013B0007F4F820F931F0E94C9190F90DF91CF9129
:1013C0000895CF93DF931F92CDB7DEB7909123039B
:1013D000292F30E0322F2227260F371F90E0982F39
:1013E000882741E050E0BE016F5F7F4F820F931F5F
:1013F0000E943C1989810F90DF91CF910895AF929F
:10140000BF92CF92DF92EF92FF920F931F93CF93F1
:10141000DF9300D000D000D0CDB7DEB7082F6B012E
:10142000CE0101960E94BF1F89819A810E941B1CD8
:101430009E012F5F3F4F7901590110E063E070E09A
:10144000812F0E94E109F50181935F018823D1F08A
:101450001F5F143099F710E0F70181917F018D3102
:1014600061F0883151F08A51823038F01F5F1430BA
:1014700099F70E941A1C84E05CC060E170E0812F43
:101480000E942C19E12EF12C80EF91E00197F1F7E9
:10149000402F60E070E0812F0E94C3094FEF62E0AF
:1014A00070E0812F0E94C309C114D10411F0B6016C
:1014B00013C080910B0190910C0101968115F0EC05
:1014C0009F0710F480E090EC90930C0180930B0147
:1014D00060910B0170910C01812F0E94650961E000
:1014E00070E0812F0E942C1927E02E9DC0012F9DB6
:1014F000900D11249C0128533A4F7901F901118272
:10150000108222E030E0AE014B5F5F4F68E270E096
:10151000812F0E94081C8D819E81982789279827FA
:10152000F701938382831682158214820E941A1C0B
:10153000812F26960FB6F894DEBF0FBECDBFDF9188
:10154000CF911F910F91FF90EF90DF90CF90BF90C0
:10155000AF9008950F931F93CF93DF93EC018B010E
:10156000888D843010F40E940A088091EC0588234D
:1015700029F0B80182E00E94FF0901C084E0888F51
:10158000843030F41D870C871A8E198E81E001C0DB
:1015900080E0DF91CF911F910F910895FF920F93FB
:1015A0001F93CF93DF9300D0CDB7DEB7F82ECE01D7
:1015B00001960E94BF1F89819A810E941B1C8F2D5A
:1015C0000E9440078C0163E070E08F2D0E94E109CA
:1015D000F82E0E941A1C87E1F81631F08CE1F816FB
:1015E00019F080E090E001C0C8010F900F90DF91EA
:1015F000CF911F910F91FF9008954F925F927F922C
:101600008F929F92AF92BF92CF92DF92EF92FF9212
:101610000F931F93CF93DF9300D0CDB7DEB7782E13
:101620006B014A01A82EB12C27E0829FC001112432
:10163000AC0148535A4F7A01FA0100811181CE0161
:1016400001960E94BF1F89819A810E941B1C081568
:10165000190554F4872D0E940106F70126818C019B
:10166000021B11091183008301151105A9F463E020
:1016700070E0872D0E94E109843109F480C088233D
:1016800009F47DC001E010E08C3111F400E010E0BD
:1016900011950195110973C0801691060CF484010F
:1016A00087E08A9DF0018B9DF00D1124E853FA4FDD
:1016B000E280F380C114D10459F12701F7E05F22E1
:1016C000872D0E94CE05840D951D2091EC052733B2
:1016D00019F4A801B6011AC09801240D351D213056
:1016E0003840B8F320E038E0490184189508A40197
:1016F000B6010E943C192601480C591C6801C81803
:10170000D908872D0E94CE05A601B2010E943C197E
:10171000E00EF11E87E08A9DF0018B9DF00D1124F3
:10172000E853FA4FF382E28280819181801B910B12
:10173000918380832681A801420F511D4A3F5105A4
:1017400010F4892BD9F487E08A9DF0018B9DF00D70
:101750001124E853FA4F1682F982EA8222E030E03F
:10176000AE014F5F5F4F68E270E0872D0E94760800
:1017700060E470E0872D0E942C1901C046830E940E
:101780001A1CC8010F900F90DF91CF911F910F91FC
:10179000FF90EF90DF90CF90BF90AF909F908F9091
:1017A0007F905F904F900895CF93DF93FC01218D40
:1017B000328D2115310519F48FEF9FEF11C0EC0127
:1017C0004217530708F0A901888D0E94FD0A1816D8
:1017D000190694F7298D3A8D281B390B3A8F298FDA
:1017E000DF91CF9108950F931F93CF93DF931F92B3
:1017F000CDB7DEB7FC01218D328D232B61F08C013A
:1018000041E050E0BE016F5F7F4F808D0E94FD0A76
:10181000181619061CF08FEF9FEF08C0F801818D94
:10182000928D0197928F818F898190E00F90DF9147
:10183000CF911F910F9108950F931F93CF93DF9333
:10184000CDB7DEB728970FB6F894DEBF0FBECDBF79
:101850008C01D80159964D915C915A9741155105CB
:1018600051F0ED91FC91048CF58DE02D60E070E07D
:10187000C8010995EECFF801808D0E94B807892B29
:1018800051F148E050E0BE016F5F7F4FD80158969C
:101890008C910E94FD0A18161906FCF4D801509686
:1018A00084E0FE01319601900D928A95E1F78D81D9
:1018B00090E0982F88272E81820F911DF801958B3B
:1018C000848B8F8190E0982F88272885820F911D27
:1018D000928F818F02C080E090E028960FB6F89436
:1018E000DEBF0FBECDBFDF91CF911F910F91089545
:1018F0001F93CF93DF9300D0CDB7DEB7182FCE0163
:1019000001960E94BF1F89819A810E941B1C63E07F
:1019100070E0812F0E94E109182F0E941A1C812F6C
:101920000F900F90DF91CF911F9108951F93CF9348
:10193000DF9300D0CDB7DEB7FC01108DCE0101964C
:101940000E94BF1F89819A810E941B1C60E270E087
:10195000812F0E942C1962E070E0812F0E94E10922
:1019600084FD1CC062E070E0812F0E94E10983FFCA
:101970000AC048E162E070E0812F0E94C3090E9422
:101980001A1C80E014C00E941A1CCE0101960E940D
:10199000BF1F89819A810E941B1CDDCF40E162E05C
:1019A00070E0812F0E94C3090E941A1C81E090E020
:1019B0000F900F90DF91CF911F910895EF92FF92BA
:1019C0000F931F93CF93DF9300D000D0CDB7DEB736
:1019D0008C017B01FB018485843050F08FE692E01E
:1019E000F8019183808312821382148215821BC0B6
:1019F000CE0101960E94BF1F89819A810E941B1C03
:101A000024E030E0AE014F5F5F4F6CE070E0F70123
:101A100084850E94081C0E941A1CBE016F5F7F4FC4
:101A2000C8010E942317C8010F900F900F900F90CC
:101A3000DF91CF911F910F91FF90EF90089520E3D8
:101A4000FC0120833296862F82958F7090E1899FCA
:101A5000601911246A3014F4605D01C0695C6293FE
:101A6000682F8111F0CF08957F928F929F92AF924D
:101A7000BF92CF92DF92EF92FF920F931F93CF937B
:101A8000DF93CDB7DEB7A6970FB6F894DEBF0FBED3
:101A9000CDBF8C01762E942E852E20E2B22ECE0163
:101AA00001967C01FC012B2D11922A95E9F78FE616
:101AB00092E09AA389A38FEF8BA38CA38DA38EA30F
:101AC000680183E4C80ED11C43E450E0BE016F5DA1
:101AD0007F4FC6010E947A09019609F4B9C081E0DE
:101AE00089838A8386E0A82EAB821C82F8016481F8
:101AF0007581868197810E9473306D837E838F8389
:101B0000988789869A8680E890E09C878B874CE14D
:101B100050E0B701C6010E940709F7012B2D119271
:101B20002A95E9F7480188E0880E911CF401D70155
:101B300001900D92AA94E1F740E150E0B701C6018F
:101B40000E940709F7011192BA94E9F796E0A92ECD
:101B5000B12C40E250E0B701C6010E940709F1E054
:101B6000AF1AB108B1F783E6898392E89A8393E5C7
:101B70009B838C8385E38D8381E08E837F829DE3CD
:101B8000988797E099878A8786E0F401DE011B96A3
:101B900001900D928A95E1F78CE0898B8A8B63E046
:101BA00073E0CE0143960E94A432F8016385CE0112
:101BB00049960E941F0DF8016485CE014B960E9444
:101BC0001F0DF8016585CE014D960E941F0D4EE157
:101BD00050E0B701C6010E940709F3E07F121EC062
:101BE00082E3898384E08A83F80196859B839785C5
:101BF0009C8390899D8391899E8396E39F838887A8
:101C0000828D8987838D8A87848D8B87858D8C874C
:101C10004CE050E0B701C6010E94070987E38983C1
:101C200086E08A8391E09B8393E09C838D838FE0A1
:101C30008E838AE38F838BE388878FEF898749E0E0
:101C400050E0B701C6010E940709C6010E94960C28
:101C5000A6960FB6F894DEBF0FBECDBFDF91CF9131
:101C60001F910F91FF90EF90DF90CF90BF90AF90BA
:101C70009F908F907F9008952F923F924F925F9206
:101C80006F927F928F929F92AF92BF92CF92DF928C
:101C9000EF92FF920F931F93CF93DF93CDB7DEB7F1
:101CA0002A970FB6F894DEBF0FBECDBF1C018091FE
:101CB0002F05909130050E94C51F811140C03BC087
:101CC0007801CE0101960E94C51F8823A1F18701EA
:101CD0000F5F1F4F8981E0912F05F0913005EE0DC8
:101CE000FF1D8083E981AE2FAF77B0E0A3019201A1
:101CF0000E94F82F860E971EA81EB91E37E0440CCE
:101D0000551C661C771C3A95D1F7E7FF29C00530B2
:101D10001105B1F68FEF9FEF909351058093500519
:101D200080912D0590912E05DC01ED91FC910488A8
:101D3000F589E02D099560E070E0CB01D7C0E09116
:101D40002F05F0913005D0801982EE24E394F12C18
:101D5000812C912C5401412C512C32014394B1CF50
:101D6000BD2DB07FBE838FEF800FF1018083B03334
:101D700081F580912F0590913005800F911F0E9471
:101D8000C51F8823C1F220912F0530913005C7016E
:101D90000296820F931F0E94C51F882361F20E5F77
:101DA0001F4FE0912F05F0913005D1018C91DF019B
:101DB000A80FB11D11968C91119790E0982F88274C
:101DC00012962C91820F911D208121FF09C002964D
:101DD00007C0F0E0E0E030E020E080E090E004C008
:101DE000F2E0E0E030E020E0A80160E070E0CF2E1B
:101DF000DE2EE32EF22E2A013B014C185D086E0800
:101E00007F084A825B826C827D822C01612C712C5E
:101E10004F82588669867A864A805B806C807D8096
:101E20004C0C5D1C6E1C7F1CC814D904EA04FB0416
:101E300008F046C0CE0101960E94C51F882309F410
:101E40007ACF80914E0590914F05009711F12E8128
:101E50002033F9F4D1012C914EEF5FEF6FEF7FEF5C
:101E6000421B510961097109440E551E661E771EF9
:101E70002F81388549855A8524153505460557052E
:101E800040F4DC01ED91FC910190F081E02D69813D
:101E9000099580913105909132050817190750F482
:101EA0008981E0912F05F0913005E00FF11F8083CB
:101EB0000F5F1F4FBFEFCB1ADB0AEB0AFB0AACCF59
:101EC00080914E0590914F05892B69F480913105E1
:101ED00090913205A0E0B0E084159505A605B70500
:101EE00010F400E010E0B80180E090E02A960FB610
:101EF000F894DEBF0FBECDBFDF91CF911F910F9140
:101F0000FF90EF90DF90CF90BF90AF909F908F9019
:101F10007F906F905F904F903F902F90089544E096
:101F200050E0BC018FE090E00C94C919FC018FE6F1
:101F300092E0918380831282138214821582138629
:101F4000128648EE53E060E070E04487558766876C
:101F5000778729EC31E031872087978B868B108E2D
:101F6000118E128E138E84E080A308954F925F929B
:101F70006F927F928F929F92AF92BF92CF92DF9299
:101F8000EF92FF920F931F93CF93DF93CDB7DEB7FE
:101F900063970FB6F894DEBF0FBECDBF7C015B0127
:101FA0003A01FB0120E080E090E06AE031913323C8
:101FB00009F140ED430F4A3080F4689FA001699F0A
:101FC000500D1124CA01C097830F911D37FD9A95BA
:101FD0008F3F910559F350F313C03E3289F42330FB
:101FE00079F0D301A20FB11D12968C932F5F80E080
:101FF00090E0DCCF233021F4F301858381E021C020
:10200000F701428153816481758180911F05909110
:102010002005A0912105B0912205481759076A07AC
:102020007B0709F491C10E9403238701085F1F4FBA
:102030006F7077277C5FC8010E94AA0A813019F06F
:1020400080E090E0D9C18FE692E09A838983F7011E
:1020500082819381A481B5818B839C83AD83BE8370
:1020600045E350E0BE016F5F7F4FC8010E947A09CF
:10207000892B19F4C12CD12C62C10E940323F701D2
:102080007783668342E050E0B7016A5F7F4FC80103
:102090000E94070981E090E09A83898342E050E042
:1020A000BE016F5F7F4FC8010E94070980E091E089
:1020B0009A83898342E050E0BE016F5F7F4FC80181
:1020C0000E9407091A82198242E050E0BE016F5F48
:1020D0007F4FC8010E94070942E050E0BE016F5FD8
:1020E0007F4FC8010E94070942E050E0BE016F5FC8
:1020F0007F4FC8010E9407094501F50180818823AF
:1021000001F164015601F60181912F01882321F02C
:102110008E3211F06201F6CFC818D9081C141D04C4
:1021200074F4CD8641E050E0BE01635F7F4FC8018B
:102130000E940709A601B401C8010E9407094201D3
:10214000DCCF1D8641E050E0BE01635F7F4FC801D8
:102150000E940709C12CDD24D394DA82C98242E0AF
:1021600050E0BE016F5F7F4FC8010E940709DA820D
:10217000C98242E050E0BE016F5F7F4FC8010E94FC
:102180000709C8010E94960C892B09F473CFE3E07C
:10219000AE2EB12C230122E0420E511C0E940323DB
:1021A0003B014C01C8010E941C0C18161906A4F032
:1021B0000E940323DC01CB0186199709A809B909FC
:1021C00089389341A105B105D0F462E370E080E065
:1021D00090E00E94C922E6CFF701428153816481D9
:1021E0007581808D918DA28DB38D481759076A072F
:1021F0007B0749F4848D958DC59729F409C0CC24BB
:10220000CA94DC2C93C05EEFC52EDD24DA948EC018
:10221000F70181A192A10C970CF4E9C04CE050E0C9
:10222000BE016F5F7F4FC8010E94D40B8B819C81E0
:102230009827892798279A8B898BF70146815781A0
:1022400029813A814217530709F0C2C097FFC0C0E5
:102250008F709270892B09F0C0C06F8078847624CB
:10226000672476246114710409F4BCC0C12CD12CFC
:102270008D819E81982789279827C816D90608F44A
:1022800066C0812C912C41E050E0BE016D5E7F4F15
:10229000C8010E94D40B4B89842F807C09F076C042
:1022A000442331F050E060E070E0C8010E94D40B9C
:1022B0008B898111E8CF42E050E0BE01615F7F4F22
:1022C000C8010E94D40B42E050E0BE01635F7F4F23
:1022D000C8010E94D40B44E050E060E070E0C80107
:1022E0000E94D40B42E050E0BE016F5E7F4FC801F8
:1022F0000E94D40B8F85988949895A89811591400C
:1023000009F04DC0CD84DE84DC24CD24DC2481E0C2
:10231000C816D10409F043C04115544009F053C018
:1023200044E050E0B201C8010E94D40B21E0A21A9F
:10233000B10829F0FFEFCF16DF0609F42FCFC8014F
:102340000E946808C60158C08EEF9FEF55C041E05B
:1023500050E0BE01635F7F4FC8010E94D40B4D85E2
:10236000442331F050E060E070E0C8010E94D40BDB
:102370008D858111ECCF44E050E060E070E0C80151
:102380000E94D40BFFEFCF1ADF0A72CF41E050E07A
:1023900060E070E0C8010E94D40B1B8A89CF5427EB
:1023A0004527542760E070E0C8010E94D40BFFEF7E
:1023B0008F1A9F0A6814790409F065CF96EFC92E29
:1023C000DD24DA94B3CF77EFC72EDD24DA94AECFD5
:1023D0004CEFC42EDD24DA94A9CF3BEFC32EDD24CD
:1023E000DA94A4CF2AEFC22EDD24DA949FCF8DEFAA
:1023F000C82EDD24DA949ACF63960FB6F894DEBF28
:102400000FBECDBFDF91CF911F910F91FF90EF9045
:10241000DF90CF90BF90AF909F908F907F906F9004
:102420005F904F9008952F923F924F925F926F92DC
:102430007F928F929F92AF92BF92CF92DF92EF9254
:10244000FF920F931F93CF93DF93CDB7DEB7E9973A
:102450000FB6F894DEBF0FBECDBF7C014A015B0111
:1024600019010E9403232B013C0187010D5B1F4FC3
:10247000C8010E941C0C18161906A4F00E94032320
:10248000DC01CB0184199509A609B70988169906BC
:10249000AA06BB06D8F062E370E080E090E00E94FC
:1024A000C922E6CF42E250E0BE016F5F7F4FC80114
:1024B0000E94D40B8981823011F080E035C1F8018F
:1024C0008489958983349105C1F702C08FEF2CC1AF
:1024D0006D817E818F8198850E9473302B013C0134
:1024E000F101608371838283938346E050E0B701FA
:1024F000685F7F4FCE014D960E946C32892BE9F6C2
:10250000F70180819181A281B381481659066A063C
:102510007B0698F284819581A681B7818415950503
:10252000A605B70550F289899A89AB89BC89868747
:102530009787A08BB18B4EEC50E060E070E0C80153
:102540000E94D40B1FA66701F2E2CF0ED11CC70177
:10255000869699AB88ABF701BA96FBABEAAB47011D
:10256000FAE18F0E911C8D969DAB8CABF7017296A4
:10257000FFABEEABCD9799AF88AF17019EE1290E67
:10258000311CF801818D928D181619060CF0CBC004
:10259000C8010E94F30B8333910509F4A5C0ACF484
:1025A0008130910569F11CF4892B59F3B6C0833051
:1025B000910571F1069709F0B0C0C8010E94F30BB4
:1025C0005C0144E050E0B1012BC08A33910509F46D
:1025D0005FC034F48533910559F0C69771F19DC001
:1025E0008B33910509F46AC08F3F910551F295C074
:1025F000C8010E94F30BC8010E94F30B8FA7C1CF43
:10260000C8010E94F30B44E050E06EA97FA911C0FD
:10261000C8010E94F30B5C0144E050E068AD79AD65
:10262000C8010E94D40BA50155274450510960E010
:1026300070E0C8010E94D40BA4CFC8010E94F30B24
:102640005C01B401CE0183960E9423178DA19EA147
:10265000AFA1B8A5892B8A2B8B2BA1F0ECA9FDA9E2
:102660004080518062807380B401CE0189960E94BF
:1026700023178BA59CA5ADA5BEA584159505A6051C
:10268000B70521F444E050E0B401D3CFA50149C01F
:10269000C8010E94F30B44E050E068A979A9C80181
:1026A0000E94D40BF70166A177A180A591A50E9495
:1026B000733066A377A380A791A763CFC8010E9458
:1026C000F30B44E050E06AA97BA9C8010E94D40B37
:1026D000F70162A573A584A595A50E94733062A732
:1026E00073A784A795A74DCFC8010E94F30B44E0C0
:1026F00050E0B601C8010E94D40BF70162A173A19A
:1027000084A195A10E94733062A373A384A395A3AF
:1027100066A777A780AB91AB34CFC8010E94F30BBB
:10272000AC01552784CF8FA5E9960FB6F894DEBF8C
:102730000FBECDBFDF91CF911F910F91FF90EF9012
:10274000DF90CF90BF90AF909F908F907F906F90D1
:102750005F904F903F902F9008952F923F924F920D
:102760005F926F927F928F929F92AF92BF92CF9221
:10277000DF92EF92FF920F931F93CF93DF9300D0DE
:1027800000D000D0CDB7DEB78C010E94662E2FECB2
:1027900037E040E050E00E94D92FDC01CB010196E8
:1027A000A11DB11DF80184839583A683B78380831F
:1027B0009183A283B3835801F3E4AF0EB11CC5012A
:1027C0000E94680864E470E0C5010E94AA0A882398
:1027D00009F436C10E9403232B013C01812C912C6A
:1027E000C8018E5B9F4F9E838D8348EEC42E43E0CD
:1027F000D42EE12CF12C52E0252EAD81BE818C919E
:10280000833009F404C1811120C0F80184819581CD
:10281000A681B7810196A11DB11D84839583A683EE
:10282000B7830E9403236419750986099709A701D4
:1028300096010E944230A90161E0C8010E94340D56
:1028400081E0AD81BE818C93CAC08430F9F4F80177
:1028500084819581A681B7810196A11DB11D8483D4
:102860009583A683B7830E9403236419750986099B
:102870009709A70196010E944230A90163E0C801AF
:102880000E94340DAD81BE812C92A9C0813059F5D2
:10289000F80142AD53AD64AD75AD9E012F5F3F4F62
:1028A000C8010E941312382EF2E08F1392C0898162
:1028B0009A81AB81BC81F80184839583A683B78319
:1028C0000E9403236419750986099709A7019601D7
:1028D0000E944230A90163E0C8010E94340DAD811D
:1028E000BE813C927CC0823009F079C0F80142ADD3
:1028F00053AD64AD75AD9E012F5F3F4FC8010E947F
:102900001312382EF5E08F135DC0E3E0AD81BE8178
:10291000EC93F80182A193A1A4A1B5A1892B8A2BE4
:102920008B2B41F484E893E0A0E0B0E082A393A372
:10293000A4A3B5A3F80186A197A1A0A5B1A5892B51
:102940008A2B8B2B61F482A193A1A4A1B5A1B6958A
:10295000A7959795879586A397A3A0A7B1A7F801F8
:1029600082A593A5A4A5B5A5892B8A2B8B2BA9F4A9
:1029700082A193A1A4A1B5A1AC01BD0123E07695EC
:102980006795579547952A95D1F7841B950BA60B0C
:10299000B70B82A793A7A4A7B5A7F80186A197A113
:1029A000A0A5B1A586A797A7A0ABB1AB82A593A51B
:1029B000A4A5B5A582AB93ABA4ABB5AB8824839497
:1029C000912C0DC0F6E08F1304C0AD81BE811C9226
:1029D00006C0BFEF3B1203C0ED81FE811082F1E023
:1029E0008F16910409F409CF0E940323DC01CB0167
:1029F00084199509A609B709F80126A937A940AD98
:102A000051AD281739074A075B0708F0F6CEC50114
:102A10000E946808F80184819581A681B78101969A
:102A2000A11DB11D84839583A683B7830E940323D0
:102A3000F801FE966083718382839383C40102C090
:102A400080E090E026960FB6F894DEBF0FBECDBFB3
:102A5000DF91CF911F910F91FF90EF90DF90CF907A
:102A6000BF90AF909F908F907F906F905F904F90AE
:102A70003F902F9008950895CF92DF92EF92FF92AA
:102A80000F931F93CF93DF936C017A018B01C0E00A
:102A9000D0E0CE15DF0581F0D8016D918D01D60112
:102AA000ED91FC910190F081E02DC6010995892BF3
:102AB00011F02196EECF7E01C701DF91CF911F91DA
:102AC0000F91FF90EF90DF90CF90089540915004C8
:102AD000262F30E0240F311D21323105DCF4209106
:102AE0006C032430C9F4FC0180E090E0861758F4B0
:102AF000309150042191DC01A05DBB4FA30FB11DAB
:102B00002C930196F3CF80915004680F609350048A
:102B100080E0089581E0089582E008950895089581
:102B20000895E091250380912403E81730F4F0E044
:102B3000EA5DFC4F808190E008958FEF9FEF08954C
:102B40009091250380912403981750F4E92FF0E029
:102B5000EA5DFC4F208130E09F5F9093250302C027
:102B60002FEF3FEFC90108958091240390E0209159
:102B70002503821B91090895CF92DF92EF92FF9275
:102B80000F931F93CF93DF937C01CB018A01209198
:102B90009403222389F0EB016B01C40ED51ECC15E2
:102BA000DD0569F06991D701ED91FC910190F0810B
:102BB000E02DC7010995F3CF642F0E946615C80167
:102BC000DF91CF911F910F91FF90EF90DF90CF9009
:102BD0000895CF93DF931F92CDB7DEB7698320911D
:102BE00094032223D1F020919203203240F021E07F
:102BF00030E0FC013383228380E090E015C08091B7
:102C00009303E82FF0E0EE58FC4F998190838F5F9B
:102C1000809393038093920305C061E0CE010196F7
:102C20000E94661581E090E00F90DF91CF910895AA
:102C3000FC0120812EBD9B012150310941F05181C1
:102C40000DB407FEFDCF4EB55EBD4193F5CF61508B
:102C50007109FC01E60FF71F0DB407FEFDCF8EB51D
:102C6000808308950E9467328F929F92AF92BF92A5
:102C7000CF92DF92EF92FF920F931F93CF93DF9348
:102C80007C01EB016C0182E0C80ED11C4701E5E03C
:102C90008E0E911C00E010E0F60141916F0150E0B2
:102CA00060E070E02AE0CE010E9436215C01E881FC
:102CB000F9810190F081E02D6EE2CE0109958A0D37
:102CC0009B1D080F191F8C149D0431F7F7014581D6
:102CD00050E060E070E02AE0CE010E943621800FD3
:102CE000911FDF91CF911F910F91FF90EF90DF9097
:102CF000CF90BF90AF909F908F90089584E794E01D
:102D00000E94412021E0892B09F420E0822F0895C0
:102D1000EF92FF920F931F93CF93DF93EC018B0100
:102D20007A010E940323688B798B8A8B9B8B8C8121
:102D30009D81DC01ED91FC910280F381E02DA701E2
:102D4000B801DF91CF911F910F91FF90EF900994FF
:102D50001F93CF93DF93EC01162F0E940323688B00
:102D6000798B8A8B9B8B8C819D81DC01ED91FC9111
:102D70000190F081E02D612FDF91CF911F91099497
:102D80001F920F920FB60F9211242F933F934F93E0
:102D90005F936F937F938F939F93AF93BF93EF93C3
:102DA000FF93E0910201F09103010995FF91EF91EA
:102DB000BF91AF919F918F917F916F915F914F9153
:102DC0003F912F910F900FBE0F901F9018951F925B
:102DD0000F920FB60F9211242F933F934F935F934F
:102DE0006F937F938F939F93AF93BF93EF93FF93D3
:102DF000E0910001F09101010995FF91EF91BF91E0
:102E0000AF919F918F917F916F915F914F913F9182
:102E10002F910F900FBE0F901F901895611571059F
:102E200079F0FB0101900020E9F73197AF01461BD3
:102E3000570BDC01ED91FC910280F381E02D0994A8
:102E400080E090E00895DC018FE692E08D939D9301
:102E500084E0FB0101900D928A95E1F708951F929D
:102E60000F920FB60F9211242F933F934F935F93BE
:102E70006F937F938F939F93AF93BF93EF93FF9342
:102E800084E794E00E947F21FF91EF91BF91AF9181
:102E90009F918F917F916F915F914F913F912F9172
:102EA0000F900FBE0F901F9018951F920F920FB6A4
:102EB0000F9211242F938F939F93EF93FF93E091A1
:102EC0008404F09185048081E0918A04F0918B0460
:102ED00082FD12C0908180918D048F5F8F7320914D
:102EE0008E04821751F0E0918D04F0E0EC58FB4F16
:102EF000958F80938D0401C08081FF91EF919F9108
:102F00008F912F910F900FBE0F901F9018951092D8
:102F10006C0381E080936B031092460361E082E1D1
:102F20000E94392261E083E10E943922E9EBF0E05E
:102F300080818E7F808380818D7F808380E28093FB
:102F4000B80085E48093BC000895CF93DF9391E0AF
:102F500090932F048823B9F0C091B800D091BA00A3
:102F60008091BC008A7B8093BC0060E082E10E947B
:102F7000392260E083E10E9439220E948717D093B2
:102F8000BA00C093B800DF91CF91089585ED80938A
:102F9000BC0080916E0390916F03A0917003B0917B
:102FA00071030796A11DB11D23E0B695A7959795CE
:102FB00087952A95D1F72091BC0024FF1CC0409131
:102FC0006E0350916F036091700370917103452BF4
:102FD000462B472B81F30097A105B10541F02AE16B
:102FE0002A95F1F700C00197A109B109E4CF8091BA
:102FF0006D030C94A51710926C0308951F920F9205
:103000000FB60F9211242F933F934F935F936F93BB
:103010007F938F939F93AF93BF93EF93FF93809191
:10302000B900887F803609F49CC068F5883209F4BD
:103030005BC090F4803109F454C038F4882309F45B
:10304000F6C0883009F44DC0F6C0883109F44CC090
:10305000803209F45DC0EFC0803409F468C048F4E0
:10306000803309F455C0883309F0E5C080936A03C2
:10307000D8C0803509F44FC0883509F45DC0883464
:1030800009F0D9C0D6C0883909F4C7C0A8F4883778
:1030900009F467C038F4883609F463C0803709F44E
:1030A00060C0C9C0883809F4B8C0803909F45FC06D
:1030B000803809F0C0C05BC0803B09F486C038F49A
:1030C000803A09F466C0883A09F47FC0B4C0803CF5
:1030D00009F4A7C0883C09F4A4C0883B09F48AC05D
:1030E000AAC08091470310C0909169038091680342
:1030F000981770F5E091690381E08E0F8093690362
:10310000F0E0E85BFC4F80818093BB0085EC86C0DB
:1031100080936A038EC0E091690381E08E0F8093F3
:1031200069038091BB00F0E0E85BFC4F80839091E5
:103130006903809168036EC0E091690381E08E0F9E
:10314000809369038091BB00F0E0E85BFC4F8083D3
:1031500080916B0381116DC081E08093460384EA06
:1031600061C083E080936C0310927204CFCF809192
:103170007204803208F051C0E091720481E08E0F39
:10318000809372048091BB00F0E0EE5AFB4F808385
:10319000BDCF85EC8093BC0010926C0380917204CB
:1031A000803230F4E0917204F0E0EE5AFB4F10826E
:1031B0006091720470E0E0911C03F0911D0382E5C0
:1031C00094E009951092720436C084E080936C03F9
:1031D0001092510410925004E0911E03F0911F03CD
:1031E000099580915004811105C081E080935004BD
:1031F00010923004E091510481E08E0F80935104CD
:10320000F0E0E05DFB4F80818093BB009091510422
:1032100080915004981708F479CF85E88093BC001A
:103220000AC085EC8093BC0010926C0304C010921D
:103230006A030E94C617FF91EF91BF91AF919F91D2
:103240008F917F916F915F914F913F912F910F904F
:103250000FBE0F901F901895CF93C82F462F61E097
:1032600070E00E94C30961E070E08C2F0E94E109C8
:103270008111F9CFCF910895AF92BF92CF92DF9293
:10328000EF92FF920F931F93CF93DF9300D000D064
:10329000CDB7DEB78C016B017A018091EC058333E9
:1032A000F1F45B016801C40ED51E0C151D0509F46F
:1032B00060C00E9408078FE00E943907812F0E949A
:1032C0003907802F0E9439070F5F1F4F80E00E944F
:1032D0003907F50181935F010E94FE06E6CF843332
:1032E000F1F40E94080719830A838F2D8F778B834F
:1032F000EC8264E070E0CE0101960E941816A701EE
:1033000060E070E0C6010E949432E114F10421F003
:10331000B701C6010E9418160E94FE062AC00E942C
:1033200008070F3F110509F020F419820A831B8258
:103330001DC017FD0BC019820A8333E0169507954F
:103340003A95E1F7007E08600B8310C0C80126E0C3
:10335000969587952A95E1F719830A83807E011552
:10336000104C10F4806101C088618B8363E070E0D1
:10337000C2CFC7010F900F900F900F90DF91CF91A8
:103380001F910F91FF90EF90DF90CF90BF90AF9083
:103390000895AF92BF92CF92DF92EF92FF920F9378
:1033A0001F93CF93DF93CDB7DEB728970FB6F8946E
:1033B000DEBF0FBECDBF8C017B016A018091EC05A1
:1033C0008333E1F45801A40EB51E0A151B0509F458
:1033D0008BC00E94080780EF0E943907812F0E944E
:1033E0003907802F0E9439070F5F1F4FF701819126
:1033F0007F010E9439070E94FE06E7CF843321F542
:103400000E94080719830A838D2D80688B83CC82E4
:1034100064E070E0CE0101960E94181687010C0D41
:103420001D1DE016F10669F0F70181917F010E94F0
:103430003907F7CFB6016D5F7F4FCE0101960E942D
:1034400018160E94FE0650C00E9408070F3F110583
:1034500009F020F419820A8384E01CC017FD0BC018
:1034600019820A8333E0169507953A95E1F7007EB5
:103470000C600B8310C0C80126E0969587952A95AD
:10348000E1F719830A83807E0115104C10F48461E2
:1034900001C08C618B8326E0C216D10498F420E031
:1034A000822F90E08C159D0528F6E4E0F0E0EC0F0B
:1034B000FD1FE80FF91FD701A80FB91F8C9180835A
:1034C0002F5FEECF63E070E0CE0101960E941816E8
:1034D00087010C0D1D1DF70181917F010E943907A5
:1034E000E016F106C1F7ADCFC60128960FB6F894E5
:1034F000DEBF0FBECDBFDF91CF911F910F91FF9027
:10350000EF90DF90CF90BF90AF900895CF93DF936F
:1035100080E80E942607C4E1D0E00E9413078823B8
:1035200051F061E070E080E090E00E94C9222197B4
:10353000A1F780E001C081E0DF91CF910895CF93A2
:10354000DF931F92CDB7DEB76983DC01ED91FC916B
:103550000280F381E02D41E050E0BE016F5F7F4FBC
:1035600009950F90DF91CF910895FC018485958591
:103570000895FC018489958908952FE632E0FC01C5
:1035800031832083FB014089518962897389FC0161
:1035900042835383648375830895DC01ED91FC912C
:1035A000048CF58DE02D099480E00895CF93DF938E
:1035B000EC018C858430C8F40E94780C843181F051
:1035C000882371F0883161F08C3161F4E881F981F0
:1035D0000084F185E02DCE01099521E0892B19F4B5
:1035E00020E001C021E0822F01C080E0DF91CF9177
:1035F0000895CF92DF92EF92FF92CF93DF93EC0189
:103600008C85843038F50E94EE070E9403236B01FD
:103610007C018C850E94780C8823D1F061E070E0F9
:1036200080E090E00E94C9220E940323AB01BC010C
:103630004C195D096E097F098D859E85A0E0B0E07B
:10364000481759076A077B0720F38C850E940A08F0
:1036500084E08C87DF91CF91FF90EF90DF90CF9047
:103660000895CF93DF93EC018C85843060F40E9441
:10367000780C873111F08C3131F48C850E94CE0AA0
:103680008115984088F3DF91CF910895FC018485DE
:10369000843010F40C94CE0A80E090E00895CF932B
:1036A000DF931F92CDB7DEB741E050E0BE016F5F00
:1036B0007F4FFC0184850E94FD0A181619061CF430
:1036C000898190E002C08FEF9FEF0F90DF91CF9143
:1036D0000895FC018485843010F40C94FD0A80E088
:1036E00090E00895CF93DF93FC012485243018F0F7
:1036F0008FEF9FEF0EC0EC010190F081E02D008470
:10370000F185E02D0995892B99F38C850E947C0722
:1037100090E0DF91CF910895FC018485843010F40E
:103720000C94B80780E090E00895CF92DF92EF927A
:10373000FF920F931F93CF93DF93CDB7DEB7AF9771
:103740000FB6F894DEBF0FBECDBF8C016B017A01BE
:10375000CE0101960E94960F8FE692E09BA78AA762
:103760001CA61DA61EA61FA6D8011C968C918430EF
:1037700060F40E94780C882321F0F80184850E946F
:10378000EE0784E0D8011C968C93809125059091DA
:103790002605A0912705B09128058EA39FA3A8A771
:1037A000B9A78B839C83AD83BE8318861F82AE012D
:1037B000465D5F4FB601CE0101960E94B60F00979D
:1037C000C1F0D801ED91FC910684F785E02D8FE6DC
:1037D00092E09DA38CA38CA59DA5AEA5BFA58EA3AD
:1037E0009FA3A8A7B9A7A701BE016C5D7F4FC80121
:1037F0000995AF960FB6F894DEBF0FBECDBFDF912F
:10380000CF911F910F91FF90EF90DF90CF9008958F
:10381000DA0190912303E92FF0E0FE2FEE27E60F67
:10382000F71F90E0982F8827A901BD018E0F9F1FD9
:103830000C943C1908958CBD9DBD08956F927F92A4
:103840008F929F92AF92BF92CF92DF92EF92FF92B0
:103850001F93CF93DF9300D0CDB7DEB7FC01148563
:10386000143008F061C06A014130F8E05F0718F0D9
:10387000C12C28E0D22E7A013B015C01CE010196D9
:103880000E94BF1F89819A810E941B1C812F0E9468
:1038900040074C0163E070E0812F0E94E10987310D
:1038A00011F08C3121F48C149D0440F302C0C12C22
:1038B000D12CCE0101960E94BF1F89819A810E945E
:1038C0001B1C9601A30160E070E0812F0E94880814
:1038D00060E270E0812F0E942C1962E070E0812F7D
:1038E0000E94E10984FD16C063E070E0812F0E9410
:1038F000E109811106C081E090E0F50193838283A4
:1039000013C0CE0101960E94BF1F89819A810E9437
:103910001B1CE3CF40E162E070E0812F0E94C309ED
:10392000CD2849F3C70102C080E090E00F900F90CE
:10393000DF91CF911F91FF90EF90DF90CF90BF90DC
:10394000AF909F908F907F906F900895AF92BF92AD
:10395000CF92DF92EF92FF920F931F93CF93DF935B
:1039600000D0CDB7DEB78C016B015A01FC01848514
:10397000843058F40E94780C882321F0F801848563
:103980000E94EE0784E0F8018487F601828193812A
:10399000A481B5810097A105B10509F462C08F3FEC
:1039A0009F4FAF4FBF4F09F45CC08091EC05882357
:1039B00039F060E070E081E20E94FF09F82E02C059
:1039C00084E0F82EF801F486F3E0FF1508F449C00E
:1039D000CE0101960E94BF1F89819A810E941B1C03
:1039E000A6014E5F5F4F24E030E06CE070E08F2D69
:1039F0000E947608B5018F2D0E94500964E070E0A6
:103A00008F2D0E942C190E9403236B017C01F80169
:103A100084850E94780C873139F18C3129F1882313
:103A200001F10E940323AB01BC014C195D096E0931
:103A30007F09F80185859685A0E0B0E08417950799
:103A4000A607B70738F061E070E080E090E00E94E0
:103A5000C922DDCFF80184850E940A0884E0F801BC
:103A6000848780E090E002C081E090E00F900F90AA
:103A7000DF91CF911F910F91FF90EF90DF90CF904A
:103A8000BF90AF9008950F931F93CF93DF93EC01F6
:103A90008B012097D9F06E817F8160177107B1F09B
:103AA0000115110541F06115710529F0C8010E9449
:103AB0009B32892B59F08D81882331F098E089025F
:103AC000C00DD11D1124E5CFC0E0D0E0CE01DF91C3
:103AD000CF911F910F910895FC0190819078692BEF
:103AE00060830895982F80ED890F8A3020F081EA55
:103AF000890F8C3110F481E008958FEB890F8A31A2
:103B0000D0F39B32C1F381E09D3221F09E3219F057
:103B100080E00895089508959F92AF92BF92CF924A
:103B2000DF92EF92FF920F931F93CF93DF9300D01A
:103B300000D01F92CDB7DEB78C010E944001D82E75
:103B4000D80118961C92E12CF12C70EFC72EC801F9
:103B50000E944001F8011086D81609F456C0882347
:103B6000C9F08C3509F046C0C8010E944001882385
:103B700089F0853719F0EAE0F3E033C0D8011896F0
:103B80001C9264E0962EA12CB12CC8010E94400129
:103B9000811106C0F801E55BFF4F82E090E00EC0A6
:103BA000813414F490ED02C08F7D99EC980F903120
:103BB00048F0F801E55BFF4F83E090E0918380835C
:103BC00080E08FC054E0AA0CBB1C5A95E1F7A92AEB
:103BD000F80110869A949110D8CF22C0891729F045
:103BE000329690819111FACFE4CF8181882309F335
:103BF000F8011086D801ED91FC9111979F012F5F7C
:103C00003F4F2D933C938083A2CFD8010190F08148
:103C1000E02DCF0101968D939C93108281E061C0CD
:103C2000C501985D8115944020F47501F3E0FF22F1
:103C30008ECFC5019C5D8115944068F4C5019370D9
:103C40005701BA2CAA24BB0CBB0C8A299B29A0E0E3
:103C5000B0E0119603C0C501A0E0B0E01982803841
:103C60009105A105B10520F48A83FE01339629C090
:103C7000282F2F7320682A8336E0B695A79597954D
:103C800087953A95D1F78032910528F4806C8B8323
:103C9000FE01349616C0282F2F7320682B8326E050
:103CA000969587952A95E1F78031910528F4806EE5
:103CB0008C83FE01359605C080688C83CD82FE0121
:103CC00036968291882309F442CFD8014D915C91B8
:103CD00011979A012F5F3F4F2D933C93DA018C93FC
:103CE000F0CF0F900F900F900F900F90DF91CF912A
:103CF0001F910F91FF90EF90DF90CF90BF90AF900A
:103D00009F9008951F93CF93DF93EC01162F0E948D
:103D10004001811303C0188681E001C080E0DF917B
:103D2000CF911F910895CF93DF93EC01FA01329662
:103D3000E60FF71FDC01AD014C1B5D0BCF01861BAD
:103D4000970B2D91222311F02193F5CF9C01241B79
:103D5000350B620F731FFB013297508331964083FE
:103D6000DF91CF910895EF92FF920F931F93CF931E
:103D7000DF9300D000D0CDB7DEB77B01BA0130E0D1
:103D8000962F9F77660F672F661F770B71956115CA
:103D9000710509F0906821E0230FE1E0F0E0EC0FFD
:103DA000FD1FE30FF11D90836115710511F0322F96
:103DB000E7CF30E0B701621B730B6C5F7F4FDB0115
:103DC0008C93DE011196F701E21BF30B359685E02B
:103DD000E80EF11CEE16FF0619F08D918193FACFD3
:103DE00080912D0590912E052F5F3F4F8901040F83
:103DF000151FDC01ED91FC910280F381E02DA801FB
:103E000009957C010E9403236093390570933A055C
:103E100080933B0590933C0581E00E151F0509F04A
:103E200080E00F900F900F900F90DF91CF911F9136
:103E30000F91FF90EF90089580912D0590912E05A0
:103E4000009779F1DC01ED91FC910688F789E02D6E
:103E50000995209150053091510581111FC0232BE8
:103E600001F58DEF9FEF9093510580935005809160
:103E70002D0590912E05DC01ED91FC910680F781D6
:103E8000E02D099580912D0590912E05DC01ED9195
:103E9000FC910488F589E02D099503C081E0232B6E
:103EA00009F080E00895CF92DF92EF92FF920F9396
:103EB0001F93CF93DF937C01EB018A010E941C1FAB
:103EC000882309F440C0C0903105D0903205B60176
:103ED000C7010E94BD2E9801295F3F4F820F931F9B
:103EE000C816D90680F160912F057091300545E024
:103EF00050E0C7010E94931E7E01E00EF11EFE01FC
:103F0000EC01CE1BDF0B9E012E0F3F1F60912F0592
:103F100070913005EE15FF0531F04191DB01A20FE4
:103F2000B31F4C93F0CF05501109A801480F591F3A
:103F300081E3DF91CF911F910F91FF90EF90DF9080
:103F4000CF900C94B31E80E0DF91CF911F910F9121
:103F5000FF90EF90DF90CF900895CF93C0917304BE
:103F600080E090E00E94C32FC81729F06C2F80E0FA
:103F700090E00E94CB2F81E090E0CF91089520E562
:103F8000FC01208321E0218308958F929F92AF92BC
:103F9000BF92CF92DF92EF92FF92CF93DF93EC012B
:103FA0000E9403234B015C0180912D0590912E0509
:103FB000DC01ED91FC910084F185E02D0995892BC0
:103FC000B9F40E94032320913505309136056B0129
:103FD0007C01C818D908EA08FB08A8EEB3E00E94E3
:103FE0006430C616D706E806F906F0F280E00DC088
:103FF00080912D0590912E05DC01ED91FC910284BC
:10400000F385E02D0995888381E0DF91CF91FF90C2
:10401000EF90DF90CF90BF90AF909F908F900895DA
:10402000FC01538D448D252F30E0842F90E0821BBE
:10403000930B541710F0CF96089501970895FC0143
:10404000918D828D981761F0828DDF01A80FB11DCF
:104050005D968C91928D9F5F9F73928F90E00895F3
:104060008FEF9FEF0895FC01918D828D981731F0AD
:10407000828DE80FF11D858D90E008958FEF9FEF01
:104080000895FC01918D228D892F90E0805C9F4FD7
:10409000821B91098F739927089580E090E0892B06
:1040A00029F00E947E1681110C94000008958F92D1
:1040B0009F92AF92BF92CF92DF92EF92FF921F93A7
:1040C000CF93DF93CDB7DEB72C970FB6F894DEBF52
:1040D0000FBECDBF2091EC05222309F4B4C06B01C3
:1040E0007C01CE0101960E94BF1F89819A810E94A6
:1040F0001B1C5E0127E0A20EB11C450110E063E02D
:1041000070E0812F0E94E109F40181934F0188231F
:10411000C9F01F5F143099F710E0F50181915F013C
:104120008D3159F0883149F08A51823030F01F5F6B
:10413000143099F70E941A1C86C060E170E0812F4C
:104140000E942C19A12EB12C80EF91E00197F1F77C
:1041500042E860E070E0812F0E94C3094FEF62E007
:1041600070E0812F0E94C309C114D10411F0B6017F
:1041700013C080910B0190910C0101968115F0EC18
:104180009F0710F480E090EC90930C0180930B015A
:1041900060910B0170910C01812F0E94650986E0EE
:1041A000E7E7F2E0DE01119601900D928A95E1F7C2
:1041B000F70183818F778C8384818D8385818E83C2
:1041C000A7014E5F5F4F24E030E06CE070E0812F8C
:1041D0000E947608B601812F0E94500926E030E047
:1041E000AE014F5F5F4F66E070E0812F0E9476085E
:1041F00061E070E0812F0E942C1927E02A9DC00108
:104200002B9D900D11249C0128533A4F7901F901FF
:104210001182108222E030E0AE01455F5F4F68E21C
:1042200070E0812F0E94081C8B859C859827892728
:104230009827F701938382831682158214820E9445
:104240001A1C812F01C084E02C960FB6F894DEBFB3
:104250000FBECDBFDF91CF911F91FF90EF90DF9008
:10426000CF90BF90AF909F908F9008958F929F9224
:10427000AF92BF92EF92FF920F931F93CF93DF9372
:10428000CDB7DEB7A1970FB6F894DEBF0FBECDBF96
:104290007C01FA01CB0119A2223008F42AE08E0138
:1042A0000F5D1F4F822E912CA12CB12CBF01A501B7
:1042B00094010E944230F901CA01015011096A308B
:1042C00014F4605D01C0695CD8016C93232B242B2E
:1042D000252B61F7B801C7010E940E17A1960FB6F2
:1042E000F894DEBF0FBECDBFDF91CF911F910F912C
:1042F000FF90EF90BF90AF909F908F900895FC013A
:10430000848DDF01A80FB11DA35ABF4F2C91848D5E
:1043100090E001968F739927848FA689B7892C9393
:10432000A089B1898C91837080648C93938D848DE6
:10433000981306C00288F389E02D80818F7D8083E9
:104340000895EF92FF920F931F93CF93DF93EC01A9
:1043500081E0888F9B8D8C8D981305C0E889F98941
:10436000808185FD26C0F62E0B8D10E00F5F1F4F5C
:104370000F731127E02E8C8DE8120CC00FB607FCCE
:10438000FACFE889F989808185FFF5CFCE010E94B7
:104390007F21F1CF8B8DFE01E80FF11DE35AFF4F16
:1043A000F0829FB7F8940B8FEA89FB898081806245
:1043B0000AC09FB7F894EE89FF896083E889F9897C
:1043C00080818370806480839FBF81E090E0DF9173
:1043D000CF911F910F91FF90EF900895CF93DF93AE
:1043E000EC01888D8823C9F0EA89FB89808185FDED
:1043F00005C0A889B9898C9186FD0FC00FB607FC4E
:10440000F5CF808185FFF2CFA889B9898C9185FF8E
:10441000EDCFCE010E947F21E7CFDF91CF910895AC
:10442000833081F028F4813099F08230A1F0089532
:104430008730A9F08830B9F08430D1F480918000C1
:104440008F7D03C0809180008F77809380000895D6
:1044500084B58F7702C084B58F7D84BD0895809127
:10446000B0008F7703C08091B0008F7D8093B00043
:1044700008951F93CF93DF93282F30E0F901E25284
:10448000FF4F8491F901E653FF4FD491F901EA54AB
:10449000FF4FC491CC23C1F0162F81110E9410222E
:1044A000EC2FF0E0EE0FFF1FE455FF4FA591B49104
:1044B0009FB7F894111104C08C91D095D82302C0F5
:1044C000EC91DE2BDC939FBFDF91CF911F9108957C
:1044D000CF93DF9390E0FC01E653FF4F2491FC0162
:1044E000EA54FF4F8491882361F190E0880F991F6F
:1044F000FC01EE55FF4FC591D491FC01E455FF4FEF
:10450000A591B491611109C09FB7F8948881209555
:1045100082238883EC912E230BC0623061F49FB715
:10452000F8948881322F309583238883EC912E2B49
:104530002C939FBF06C08FB7F894E8812E2B288359
:104540008FBFDF91CF9108953FB7F8948091F20526
:104550009091F305A091F405B091F50526B5A89BBF
:1045600005C02F3F19F00196A11DB11D3FBFBA2F05
:10457000A92F982F8827820F911DA11DB11DBC0165
:10458000CD0143E0660F771F881F991F4A95D1F729
:1045900008958F929F92AF92BF92CF92DF92EF9247
:1045A000FF926B017C010E94A4224B015C01C114AB
:1045B000D104E104F104F1F00E94A422DC01CB015A
:1045C00088199909AA09BB09883E9340A105B1053C
:1045D00070F321E0C21AD108E108F10888EE880ED4
:1045E00083E0981EA11CB11CC114D104E104F104A4
:1045F00019F7DDCFFF90EF90DF90CF90BF90AF9095
:104600009F908F9008952FB7F8946091EE05709168
:10461000EF058091F0059091F1052FBF08951F924D
:104620000F920FB60F9211242F933F938F939F9366
:10463000AF93BF938091EE059091EF05A091F005A7
:10464000B091F1053091ED0526E0230F2D3720F4D0
:104650000296A11DB11D05C029E8230F0396A11DD7
:10466000B11D2093ED058093EE059093EF05A09387
:10467000F005B093F1058091F2059091F305A091BA
:10468000F405B091F5050196A11DB11D8093F205C9
:104690009093F305A093F405B093F505BF91AF9106
:1046A0009F918F913F912F910F900FBE0F901F9070
:1046B0001895CF93DF93CDB7DEB72F970FB6F89449
:1046C000DEBF0FBECDBF789484B5826084BD84B553
:1046D000816084BD85B5826085BD85B5816085BDFD
:1046E00080916E00816080936E00109281008091B5
:1046F000810082608093810080918100816080933D
:104700008100809180008160809380008091B10061
:1047100084608093B1008091B00081608093B0008C
:1047200080917A00846080937A0080917A00826020
:1047300080937A0080917A008E7F80937A008091B6
:104740007A00806880937A001092C10061E08EE068
:104750000E94392268EC70E080E090E00E94C9225B
:1047600061E08EE00E94682261E088E00E94682299
:1047700061E08FE00E94682261E080E10E9468228F
:1047800062E083E00E94682280E090E00E94C32FF4
:1047900080937304682F88E00E94392210922503C9
:1047A0001092240310929303109292030E94871791
:1047B0008EE895E190931F0380931E038FE895E1A7
:1047C00090931D0380931C0361E084E00E946822A3
:1047D00060E084E00E94392260E273E080E090E0D3
:1047E0000E94C92261E084E00E94392260E273E005
:1047F00080E090E00E94C9228091FA0381112AC0D2
:104800001092E2031092E10388EE93E0A0E0B0E0A2
:104810008093E3039093E403A093E503B093E6034E
:1048200089EC91E09093E0038093DF038FE692E0C0
:104830009093EE038093ED031092EF031092F00338
:104840001092F1031092F20384E08093F70381E069
:104850008093FA038CE993E090930304809302041D
:1048600080919B0381110C94502C60E372E080E0F6
:1048700090E00E94C9221FB7F89480919A03811199
:1048800027C0E0ECF0E08491E4EDF0E09491E82FB3
:10489000F0E0EE0FFF1FEE55FF4FA591B491EC91A4
:1048A000E92321F461E08AE00E94392261E08AE094
:1048B0000E9468228CB580618CBD8CB580648CBDF3
:1048C00061E08DE00E94682261E08BE00E94682236
:1048D00080919A038F5F80939A031FBFE0ECF0E012
:1048E000E491F0E0EE0FFF1FE455FF4F85919491A6
:1048F0009093220380932103E4EDF0E0E491E093B0
:10490000200361E08AE00E9468220E94FE06CE0138
:1049100001960E94BF1F89819A810E941B1C84E31B
:104920008093EC050E94861A882309F188E00E9492
:1049300026070E9413078830D1F480E10E942607E1
:104940000E941307803199F480E00E9426070E949C
:10495000130781110CC041E050E0BE016F5F7F4F33
:104960008FE190E00E943C198981833099F187E3BF
:104970008093EC050E94861A882309F44EC088E0D3
:104980000E9426070E941307883009F046C080E184
:104990000E9426070E941307182F8031F1F580E04E
:1049A0000E9426070E941307811137C041E050E0A2
:1049B000BE016F5F7F4F89E390E00E943C198981BF
:1049C000843059F5109323030E941A1C81E08093D0
:1049D0009B0366C780E48093230310E042E06EE10E
:1049E00070E0812F0E94C30942E06FE170E0812FE7
:1049F0000E94C3091F5F143089F740E06EE170E048
:104A0000812F0E94C30940E06FE170E0812F0E9476
:104A1000C3091F5F183089F7D7CF83E38093EC0574
:104A20000E94861A882371F180E10E9426070E9465
:104A30001307803139F582E10E9426070E9413078F
:104A4000823101F580E00E9426070E941307811140
:104A500019C084E08093230315E51B8741E050E0F3
:104A6000BE01655F7F4F8BE190E00E94C9191A87F4
:104A700041E050E0BE01665F7F4F8AE190E00E9416
:104A8000C919A2CF1092EC050E941A1C0E94BC0505
:104A900062E083E00E94682286E091E09093030147
:104AA0008093020180916900837F84608093690014
:104AB000E99A8FE692E09A8389831B821C821D8289
:104AC0001E82CE0108960E94BF1F888599850E948C
:104AD0001B1C44E050E0BE016D5F7F4F8FE090E013
:104AE0000E943C190E941A1C8B819C81AD81BE8161
:104AF000892B8A2B8B2B91F08EE191E090934B05C3
:104B000080934A058BE597E090934D0580934C0583
:104B10008EEE94E0909343058093420581E080936C
:104B2000990311E07CEF672E77247A940E941C1F72
:104B3000882309F468C10E9403236B017C01209142
:104B4000330530913405A8EEB3E00E9464308090C4
:104B50003D0590903E05A0903F05B0904005A7010F
:104B60009601281939094A095B09621773078407F6
:104B70009507A0F08090390590903A05A0903B05EC
:104B8000B0903C05A7019601281939094A095B092B
:104B9000621773078407950708F042C080914105AA
:104BA000882381F0709251056092500580912D0507
:104BB00090912E05DC01ED91FC910488F589E02DA2
:104BC000099521C1E0912F05F0913005B0ECB0833B
:104BD000E0912F05F0913005118280912D05909183
:104BE0002E0560912F0570913005DC01ED91FC914F
:104BF0000280F381E02D42E050E00995C092390532
:104C0000D0923A05E0923B05F0923C05C0923D05FA
:104C1000D0923E05E0923F05F09240051093410589
:104C200080912D0590912E05DC01ED91FC91008481
:104C3000F185E02D0995892B09F4E5C0CE01019697
:104C40000E943C0E4B015C01672B09F4DAC0C09254
:104C50003D05D0923E05E0923F05F0924005E0917F
:104C60002F05F09130058081807F803309F0A8C046
:104C70008091420590914305892B09F4C4C0498174
:104C800050E0CA0102968E0F9F1FDF01A40FB51FCF
:104C900011964C90512C542C4424DC012C91420E42
:104CA000511C4D5F5F4FBF01640F751FA2010E9431
:104CB00082328981E0912F05F0913005E40DF51DD8
:104CC000E80FF11D1282A0912F05B09130052981C6
:104CD00030E01901E2E02E0E311C2A0E3B1E0C9131
:104CE0000670E0914205F0914305FF87EE870230A0
:104CF00009F052C0C201820F931FFD01E80FF91F96
:104D0000638170E0762F66274481FB01E40FF11D7B
:104D1000FD87EC874BEF5FEF421B530B441955099E
:104D2000480D591D0596BD01680F791FC101EE851B
:104D3000FF850995E0912F05F091300550E4852E0F
:104D40008082E0912F05F09130050183E0912F05DD
:104D5000F09130059D849282E0912F05F09130050D
:104D6000AC84A38280912D0590912E0560912F0532
:104D700070913005DC01ED91FC910280F381E02D12
:104D800044E050E00995C0923905D0923A05E0928E
:104D90003B05F0923C0537C04DEF5FEF421B530BD4
:104DA00044195509480D591D2D5F3F4F240D351DE0
:104DB000BD01620F731FC101EE85FF85099523C0F8
:104DC000803CD1F470ED872E8082E0912F05F09128
:104DD0003005118280912D0590912E0560912F054F
:104DE00070913005DC01ED91FC910280F381E02DA2
:104DF00042E050E0099507C0803D29F4109241053A
:104E000002C00E941C1FE0900204F0900304E11411
:104E1000F10409F400C10E9403234B015C01670106
:104E2000BEE3CB0ED11CF60180819181A281B381BA
:104E3000A5019401281B390B4A0B5B0BCA01B90170
:104E4000683E33E073078105910508F446C028EEFB
:104E500033E040E050E00E944230861A970AA80AE8
:104E6000B90AD6018D929D92AD92BC921397F7012B
:104E700086A597A5A0A9B1A949015A01880C991C3A
:104E8000AA1CBB1C88159905AA05BB0528F416A603
:104E900017A610AA11AA09C0821B930BA40BB50B6D
:104EA000F70186A797A7A0ABB1ABF70182A993A999
:104EB000A4A9B5A988159905AA05BB0528F412AAC5
:104EC00013AA14AA15AA09C0821B930BA40BB50B35
:104ED000F70182AB93ABA4ABB5ABF70186A597A561
:104EE000A0A9B1A9892B8A2B8B2B71F4EE5BFF4F04
:104EF0008081833049F444E0842E8082C7010E947F
:104F0000AD1301966C0102C0C12CD12CF70182A90E
:104F100093A9A4A9B5A9892B8A2B8B2BA9F4EE5BA5
:104F2000FF4F8081833011F081110EC01082F70194
:104F30003E96DF0134E1832E1D928A94E9F7C70182
:104F40000E94AD1303966C0122E0C216D10429F031
:104F500034E0C316D10409F054C0CE0101960E947A
:104F6000BF1F89819A810E941B1C6091020470916D
:104F70000304625F7F4FCE0101960E942317CE018A
:104F800003960E948F0F60910204709103046A5E81
:104F90007F4FCE0101960E94231744E050E0BE01EE
:104FA0006D5F7F4F81E090E00E94C919609102041B
:104FB000709103046E5E7F4FCE0101960E9423170D
:104FC00044E050E0BE016D5F7F4F85E090E00E94BD
:104FD000C9190E941A1C6091020470910304625E58
:104FE0007F4FCE0101960E9423178B819C81AD815A
:104FF000BE818093250590932605A0932705B09345
:10500000280541E0C416D10421F053E0C516D104AF
:1050100011F40E94BC050E9403236093190470934D
:105020001A0480931B0490931C04C0901504D09024
:105030001604E0901704F0901804DC01CB018C19E1
:105040009D09AE09BF09893B9B40A105B10508F444
:10505000DEC11093940382E58093040410929303BD
:105060001092920360E081E195E00E94E9150091C1
:105070009203013208F0B8C00E94A4226B017C01A7
:1050800080916C03882311F180916E0390916F03DE
:10509000A0917003B0917103892B8A2B8B2B81F324
:1050A0000E94A42280906E0390906F03A0907003E2
:1050B000B0907103DC01CB018C199D09AE09BF09C9
:1050C00088169906AA06BB06D8F67FC082E08093B0
:1050D0006C0310936B038FEF80936A031092690344
:1050E00000936803A2E7B3E0E8E4F3E080E0081788
:1050F00021F09D9191938F5FFACF10924703809199
:105100004703846A8093470380914603813089F581
:10511000109246030E94A4226B017C0180914703F8
:105120008093BB0080916E0390916F03A0917003F8
:10513000B0917103892B8A2B8B2BA9F00E94A4229A
:1051400080906E0390906F03A0907003B0907103F5
:10515000DC01CB018C199D09AE09BF09881699069F
:10516000AA06BB0690F18091BC0083FDD7CF85ECE9
:1051700001C085EE8093BC000E94A4226B017C01DB
:1051800080916C03823031F580916E0390916F03B2
:10519000A0917003B0917103892B8A2B8B2B81F323
:1051A0000E94A42280906E0390906F03A0907003E1
:1051B000B0907103DC01CB018C199D09AE09BF09C8
:1051C00088169906AA06BB06D8F680916D030E9440
:1051D000A5170AC080916A038F3F31F080916A035E
:1051E000803211F080916A0310929303109292031F
:1051F0001092940361E070E080E090E00E94C92288
:105200000E94A4226B017C0100916C03002339F100
:1052100080916E0390916F03A0917003B091710320
:10522000892B8A2B8B2B81F30E94A42280906E0302
:1052300090906F03A0907003B0907103DC01CB01DC
:105240008C199D09AE09BF0988169906AA06BB06E6
:10525000D8F680916D030E94A51700E08BC01093D3
:105260006C0310936B038FEF80936A0310926903B2
:10527000109368031093470380914703846A8093D7
:10528000470380914603813089F5109246030E94BE
:10529000A4226B017C01809147038093BB00809125
:1052A0006E0390916F03A0917003B0917103892BED
:1052B0008A2B8B2BA9F00E94A42280906E039090E1
:1052C0006F03A0907003B0907103DC01CB018C19C7
:1052D0009D09AE09BF0988169906AA06BB0690F17A
:1052E0008091BC0083FDD7CF85EC01C085EE809313
:1052F000BC000E94A4226B017C0180916C03813070
:1053000031F580916E0390916F03A0917003B0917D
:105310007103892B8A2B8B2B81F30E94A42280900E
:105320006E0390906F03A0907003B0907103DC0146
:10533000CB018C199D09AE09BF0988169906AA06EA
:10534000BB06D8F680916D030E94A51713C080910B
:105350006903823018F48091690301C082E0A8E4F7
:10536000B3E0E6E2F3E000E0081721F09D919193AD
:105370000F5FFACF1092250300932403802F90E053
:10538000029764F081E195E00E94A01580930504E6
:1053900081E195E00E94A0158093060480910504A8
:1053A00090910604982789279827909398038093D3
:1053B0009703209196038E3E924068F4211117C006
:1053C000109396031093990361E08FE00E943922B5
:1053D000109395030CC0222351F010929603109362
:1053E000990360E08FE00E9439221092950380912A
:1053F000190490911A04A0911B04B0911C0480938D
:10540000150490931604A0931704B09318040E94F7
:10541000032360932A0470932B0480932C049093AD
:105420002D04C0902604D0902704E0902804F0902A
:105430002904DC01CB018C199D09AE09BF09813D0E
:105440009C46A440B10528F480919903882309F46F
:10545000EFC10E941C1F8111CBC10E941C1F811132
:1054600072C180912D0590912E05DC01ED91FC918A
:105470000688F789E02D09958823A1F081E090E066
:10548000909338058093370587E0E7E1F1E0DE018E
:10549000119601900D928A95E1F7DE01119685E053
:1054A00090E039C060914A0570914B0580912D05BF
:1054B00090912E0540914C0550914D05DC01ED91E8
:1054C000FC916115710521F00088F189E02D18C06B
:1054D0000684F785E02D2FE6822E22E0922E9A8216
:1054E0008982C0904605D0904705E0904805F0902D
:1054F0004905CB82DC82ED82FE82BE016F5F7F4F69
:105500000995019709F4BACFEEEFFFEFF09351053B
:10551000E09350056DC12D91E0912F05F09130057C
:10552000E80FF91F208301968C309105A1F7E090D8
:105530002F05F09030058EEED7011C968C931C97AA
:10554000809134051D968C931D97809133051E968E
:105550008C93C0903105D0903205B60186E791E07A
:105560000E94BD2E4196C816D90608F4E0C04FE04F
:1055700050E0B70186E791E00E94931E7C01C09045
:105580003105D0903205B60188E491E00E94BD2E2D
:105590008E0D9F1D0296C816D90608F4C8C06091EA
:1055A0002F0570913005A70188E491E00E94931EB9
:1055B0007C01C0903105D0903205B6018DE792E0B4
:1055C0000E94BD2E8E0D9F1D0296C816D90608F4A6
:1055D000AEC060912F0570913005A7018DE792E074
:1055E0000E94931E7C01C0903105D0903205B60117
:1055F0008BE691E00E94BD2E8E0D9F1D0296C8166F
:10560000D90608F494C060912F0570913005A70168
:105610008BE691E00E94931E7C01C0903105D090F2
:105620003205B60182E691E00E94BD2E8E0D9F1DCF
:105630000296C816D90608F47AC060912F057091B9
:105640003005A70182E691E00E94931EAC0145500F
:10565000510960912F057091300580E10E94B31EC1
:105660000E9403236093390570933A0580933B05AC
:1056700090933C0560933D0570933E0580933F05F4
:105680009093400580912D0590912E05DC01ED91C0
:10569000FC910084F185E02D0995892B11F50E947C
:1056A00003232091350530913605C0903D05D090FB
:1056B0003E05E0903F05F09040054B015C018C18E1
:1056C0009D08AE08BF08A8EEB3E00E9464308616BD
:1056D0009706A806B906B0F270925105609250057F
:1056E00026C0CE0108960E943C0E643071058105EB
:1056F0009105E9F4E0912F05F09130058381811146
:1057000011C00E94032360933D0570933E05809372
:105710003F0590934005109241051092510510925B
:10572000500511C090E090935105809350058091F1
:105730002D0590912E05DC01ED91FC910488F589F1
:10574000E02D099555C0E0903105F0903205B70184
:105750008EE291E00E94BD2E0996E816F906C8F186
:105760000E941C1F8823A9F180913705909138056C
:10577000019611F481E090E090933805809337050D
:10578000E0912F05F0913005809138058583E091F7
:105790002F05F091300580913705868360912F05A4
:1057A0007091300547E050E08EE291E00E94931E38
:1057B000E0912F05F0913005E80FF91F1082AC0140
:1057C0004450510960912F057091300582E80E9484
:1057D000B31E609131057091320585E892E00E9418
:1057E000BD2EAC0165E872E088E491E00E94531F91
:1057F0000E941C1F882319F01092250409C0809173
:1058000025048F5F80932504863110F00E94BC052B
:1058100080912A0490912B04A0912C04B0912D0426
:105820008093260490932704A0932804B09329041E
:105830000E94032360932104709322048093230425
:1058400090932404C0901D04D0901E04E0901F0487
:10585000F0902004DC01CB018C199D09AE09BF0931
:10586000813E9349A440B10520F480919903882397
:10587000A1F00E9445041092990380912104909117
:105880002204A0912304B091240480931D049093DA
:105890001E04A0931F04B09320040E944D2046C90B
:1058A000CE0101960E94BF1F89819A810E941B1C14
:1058B00046E050E064E071E089E090E00E94C919A0
:1058C0008FE692E09A8389831B821C821D821E824E
:1058D000CE0103960E948F0F0E941A1C8091020431
:1058E00090910304DC0192961D921D921D921C92D0
:1058F0009597FC0116A217A210A611A69A961D92C2
:105900001D921D921C929D9740E65AEE60E070E059
:1059100046AB57AB60AF71AF40EA5FE060E070E06C
:10592000DA964D935D936D937C93DD973E9624E1DB
:10593000DF011D922A95E9F726E0E4E0F1E0DC01C1
:10594000189601900D922A95E1F7FC01EE5BFF4F4E
:1059500010820E94AD138130910509F062C0CE0122
:1059600001960E94BF1F89819A810E941B1C609131
:10597000020470910304625F7F4FCE0101960E9482
:105980002317CE0103960E948F0F6091020470913D
:1059900003046A5E7F4FCE0101960E94231744E004
:1059A00050E0BE016D5F7F4F81E090E00E94C91919
:1059B00060910204709103046E5E7F4FCE010196E8
:1059C0000E94231744E050E0BE016D5F7F4F85E0E9
:1059D00090E00E94C9190E941A1C60910204709103
:1059E0000304625E7F4FCE0101960E9423178B81D4
:1059F0009C81AD81BE818093250590932605A0935F
:105A00002705B09328050E94A4227F7380910B0183
:105A100090910C016827792770930C0160930B011A
:105A200037C8892B09F034C831C880912F0590916F
:105A300030050C941831CF92DF92EF92FF920F93C2
:105A40001F93CF93DF93E4E7F4E01382128288EE92
:105A5000C82E83E0D82EE12CF12CC482D582E682B8
:105A6000F78283EF91E09183808385EC90E09587C6
:105A7000848784EC90E09787868780EC90E0918B18
:105A8000808B81EC90E0938B828B82EC90E0958B05
:105A9000848B86EC90E0978B868B118E128E138E02
:105AA000148EE1E1F5E013821282C482D582E6828F
:105AB000F78285E092E091838083E3E8F5E0CFE62A
:105AC000D2E0D183C0831282138214821582E9E866
:105AD000F5E0D183C0831282138214821582EDE136
